{
  "contractName": "TodoList",
  "abi": [
    {
      "anonymous": false,
      "inputs": [
        {
          "indexed": false,
          "internalType": "uint256",
          "name": "id",
          "type": "uint256"
        },
        {
          "indexed": false,
          "internalType": "bool",
          "name": "completed",
          "type": "bool"
        }
      ],
      "name": "TaskCompleted",
      "type": "event"
    },
    {
      "anonymous": false,
      "inputs": [
        {
          "indexed": false,
          "internalType": "uint256",
          "name": "id",
          "type": "uint256"
        },
        {
          "indexed": false,
          "internalType": "string",
          "name": "content",
          "type": "string"
        },
        {
          "indexed": false,
          "internalType": "bool",
          "name": "completed",
          "type": "bool"
        }
      ],
      "name": "TaskCreated",
      "type": "event"
    },
    {
      "inputs": [],
      "name": "taskCount",
      "outputs": [
        {
          "internalType": "uint256",
          "name": "",
          "type": "uint256"
        }
      ],
      "stateMutability": "view",
      "type": "function",
      "constant": true
    },
    {
      "inputs": [
        {
          "internalType": "uint256",
          "name": "",
          "type": "uint256"
        }
      ],
      "name": "tasks",
      "outputs": [
        {
          "internalType": "uint256",
          "name": "id",
          "type": "uint256"
        },
        {
          "internalType": "string",
          "name": "content",
          "type": "string"
        },
        {
          "internalType": "bool",
          "name": "completed",
          "type": "bool"
        }
      ],
      "stateMutability": "view",
      "type": "function",
      "constant": true
    },
    {
      "inputs": [
        {
          "internalType": "string",
          "name": "_content",
          "type": "string"
        }
      ],
      "name": "createTask",
      "outputs": [],
      "stateMutability": "nonpayable",
      "type": "function"
    },
    {
      "inputs": [
        {
          "internalType": "uint256",
          "name": "_id",
          "type": "uint256"
        }
      ],
      "name": "completeTask",
      "outputs": [],
      "stateMutability": "nonpayable",
      "type": "function"
    }
  ],
  "bytecode": "0x60806040526000805534801561001457600080fd5b50610898806100246000396000f3fe608060405234801561001057600080fd5b506004361061004c5760003560e01c8063111002aa146100515780638d9776721461006d578063b6cb58a51461009f578063e1e29558146100bd575b600080fd5b61006b6004803603810190610066919061051a565b6100d9565b005b6100876004803603810190610082919061055b565b6101af565b6040516100969392919061061f565b60405180910390f35b6100a761026e565b6040516100b491906105db565b60405180910390f35b6100d760048036038101906100d2919061055b565b610274565b005b6000808154809291906100eb90610764565b91905055506040518060600160405280600054815260200182815260200160001515815250600160008054815260200190815260200160002060008201518160000155602082015181600101908051906020019061014a9291906103fa565b5060408201518160020160006101000a81548160ff0219169083151502179055509050507f05d0fb833127fc08168556d0e7ca9554fc3f6bc843b3b7d2bf1c35aea6bab6606000548260006040516101a49392919061061f565b60405180910390a150565b60016020528060005260406000206000915090508060000154908060010180546101d890610732565b80601f016020809104026020016040519081016040528092919081815260200182805461020490610732565b80156102515780601f1061022657610100808354040283529160200191610251565b820191906000526020600020905b81548152906001019060200180831161023457829003601f168201915b5050505050908060020160009054906101000a900460ff16905083565b60005481565b600060016000838152602001908152602001600020604051806060016040529081600082015481526020016001820180546102ae90610732565b80601f01602080910402602001604051908101604052809291908181526020018280546102da90610732565b80156103275780601f106102fc57610100808354040283529160200191610327565b820191906000526020600020905b81548152906001019060200180831161030a57829003601f168201915b505050505081526020016002820160009054906101000a900460ff1615151515815250509050600181604001901515908115158152505080600160008481526020019081526020016000206000820151816000015560208201518160010190805190602001906103989291906103fa565b5060408201518160020160006101000a81548160ff0219169083151502179055509050507fe21fa966ca5cd02748c0752352d18c48165e61cb55b4c29cccf924b5a95fcff18260016040516103ee9291906105f6565b60405180910390a15050565b82805461040690610732565b90600052602060002090601f016020900481019282610428576000855561046f565b82601f1061044157805160ff191683800117855561046f565b8280016001018555821561046f579182015b8281111561046e578251825591602001919060010190610453565b5b50905061047c9190610480565b5090565b5b80821115610499576000816000905550600101610481565b5090565b60006104b06104ab8461068e565b61065d565b9050828152602081018484840111156104c857600080fd5b6104d38482856106f0565b509392505050565b600082601f8301126104ec57600080fd5b81356104fc84826020860161049d565b91505092915050565b6000813590506105148161084b565b92915050565b60006020828403121561052c57600080fd5b600082013567ffffffffffffffff81111561054657600080fd5b610552848285016104db565b91505092915050565b60006020828403121561056d57600080fd5b600061057b84828501610505565b91505092915050565b61058d816106da565b82525050565b600061059e826106be565b6105a881856106c9565b93506105b88185602086016106ff565b6105c18161083a565b840191505092915050565b6105d5816106e6565b82525050565b60006020820190506105f060008301846105cc565b92915050565b600060408201905061060b60008301856105cc565b6106186020830184610584565b9392505050565b600060608201905061063460008301866105cc565b81810360208301526106468185610593565b90506106556040830184610584565b949350505050565b6000604051905081810181811067ffffffffffffffff821117156106845761068361080b565b5b8060405250919050565b600067ffffffffffffffff8211156106a9576106a861080b565b5b601f19601f8301169050602081019050919050565b600081519050919050565b600082825260208201905092915050565b60008115159050919050565b6000819050919050565b82818337600083830152505050565b60005b8381101561071d578082015181840152602081019050610702565b8381111561072c576000848401525b50505050565b6000600282049050600182168061074a57607f821691505b6020821081141561075e5761075d6107dc565b5b50919050565b600061076f826106e6565b91507fffffffffffffffffffffffffffffffffffffffffffffffffffffffffffffffff8214156107a2576107a16107ad565b5b600182019050919050565b7f4e487b7100000000000000000000000000000000000000000000000000000000600052601160045260246000fd5b7f4e487b7100000000000000000000000000000000000000000000000000000000600052602260045260246000fd5b7f4e487b7100000000000000000000000000000000000000000000000000000000600052604160045260246000fd5b6000601f19601f8301169050919050565b610854816106e6565b811461085f57600080fd5b5056fea2646970667358221220cc5254d3fb3367363778aea478f3ad246cc34db8c95ea69c8bf570e0ad46961c64736f6c63430008000033",
  "immutableReferences": {},
  "source": "pragma solidity ^0.8.0;\r\n\r\ncontract TodoList {\r\n    uint public taskCount = 0; // Task counter\r\n\r\n    struct Task {\r\n        uint id;\r\n        string content;\r\n        bool completed;\r\n    }\r\n\r\n    mapping(uint => Task) public tasks;\r\n\r\n    // Event to notify task creation\r\n    event TaskCreated(\r\n        uint id,\r\n        string content,\r\n        bool completed\r\n    );\r\n\r\n    // Event to notify task completion\r\n    event TaskCompleted(\r\n        uint id,\r\n        bool completed\r\n    );\r\n\r\n    // Create a new task\r\n    function createTask(string memory _content) public {\r\n        taskCount++;\r\n        tasks[taskCount] = Task(taskCount, _content, false);\r\n        emit TaskCreated(taskCount, _content, false);\r\n    }\r\n\r\n    // Mark a task as completed\r\n    function completeTask(uint _id) public {\r\n        Task memory task = tasks[_id];\r\n        task.completed = true;\r\n        tasks[_id] = task;\r\n        emit TaskCompleted(_id, true);\r\n    }\r\n}\r\n",
  "sourcePath": "C:\\Users\\shash\\Desktop\\to-do-list-dapp\\contracts\\TodoList.sol",
  "compiler": {
    "name": "solc",
    "version": "0.8.0+commit.c7dfd78e.Emscripten.clang"
  },
  "schemaVersion": "3.4.16",
  "updatedAt": "2024-12-18T05:53:59.383Z",
  "networkType": "ethereum",
  "devdoc": {
    "kind": "dev",
    "methods": {},
    "version": 1
  },
  "userdoc": {
    "kind": "user",
    "methods": {},
    "version": 1
  }
}